{
  "_format": "hh-sol-artifact-1",
  "contractName": "StudyFund",
  "sourceName": "contracts/StudyFund.sol",
  "abi": [
    {
      "inputs": [
        {
          "internalType": "address",
          "name": "_usdtAddress",
          "type": "address"
        },
        {
          "internalType": "address",
          "name": "_reserveWallet",
          "type": "address"
        }
      ],
      "stateMutability": "nonpayable",
      "type": "constructor"
    },
    {
      "inputs": [],
      "name": "AccessControlBadConfirmation",
      "type": "error"
    },
    {
      "inputs": [
        {
          "internalType": "address",
          "name": "account",
          "type": "address"
        },
        {
          "internalType": "bytes32",
          "name": "neededRole",
          "type": "bytes32"
        }
      ],
      "name": "AccessControlUnauthorizedAccount",
      "type": "error"
    },
    {
      "inputs": [],
      "name": "EnforcedPause",
      "type": "error"
    },
    {
      "inputs": [],
      "name": "ExpectedPause",
      "type": "error"
    },
    {
      "inputs": [],
      "name": "ReentrancyGuardReentrantCall",
      "type": "error"
    },
    {
      "anonymous": false,
      "inputs": [
        {
          "indexed": true,
          "internalType": "address",
          "name": "donor",
          "type": "address"
        },
        {
          "indexed": false,
          "internalType": "uint256",
          "name": "amount",
          "type": "uint256"
        },
        {
          "indexed": false,
          "internalType": "uint256",
          "name": "entries",
          "type": "uint256"
        }
      ],
      "name": "DonationReceived",
      "type": "event"
    },
    {
      "anonymous": false,
      "inputs": [
        {
          "indexed": false,
          "internalType": "address",
          "name": "account",
          "type": "address"
        }
      ],
      "name": "Paused",
      "type": "event"
    },
    {
      "anonymous": false,
      "inputs": [
        {
          "indexed": true,
          "internalType": "address",
          "name": "admin",
          "type": "address"
        },
        {
          "indexed": false,
          "internalType": "uint256",
          "name": "amount",
          "type": "uint256"
        }
      ],
      "name": "PlatformFundsWithdrawn",
      "type": "event"
    },
    {
      "anonymous": false,
      "inputs": [
        {
          "indexed": true,
          "internalType": "uint256",
          "name": "raffleId",
          "type": "uint256"
        },
        {
          "indexed": false,
          "internalType": "uint256",
          "name": "prizePool",
          "type": "uint256"
        },
        {
          "indexed": false,
          "internalType": "uint256",
          "name": "percentage",
          "type": "uint256"
        },
        {
          "indexed": false,
          "internalType": "uint256",
          "name": "calculatedPrize",
          "type": "uint256"
        }
      ],
      "name": "PrizeCalculated",
      "type": "event"
    },
    {
      "anonymous": false,
      "inputs": [
        {
          "indexed": true,
          "internalType": "uint256",
          "name": "raffleId",
          "type": "uint256"
        },
        {
          "indexed": true,
          "internalType": "address",
          "name": "winner",
          "type": "address"
        },
        {
          "indexed": false,
          "internalType": "uint256",
          "name": "amount",
          "type": "uint256"
        }
      ],
      "name": "PrizesClaimed",
      "type": "event"
    },
    {
      "anonymous": false,
      "inputs": [
        {
          "indexed": true,
          "internalType": "uint256",
          "name": "raffleId",
          "type": "uint256"
        },
        {
          "indexed": false,
          "internalType": "address[]",
          "name": "winners",
          "type": "address[]"
        },
        {
          "indexed": false,
          "internalType": "uint256[]",
          "name": "prizes",
          "type": "uint256[]"
        }
      ],
      "name": "RaffleCompleted",
      "type": "event"
    },
    {
      "anonymous": false,
      "inputs": [
        {
          "indexed": true,
          "internalType": "address",
          "name": "admin",
          "type": "address"
        },
        {
          "indexed": false,
          "internalType": "uint256",
          "name": "amount",
          "type": "uint256"
        }
      ],
      "name": "ReserveDeposited",
      "type": "event"
    },
    {
      "anonymous": false,
      "inputs": [
        {
          "indexed": true,
          "internalType": "address",
          "name": "oldWallet",
          "type": "address"
        },
        {
          "indexed": true,
          "internalType": "address",
          "name": "newWallet",
          "type": "address"
        }
      ],
      "name": "ReserveWalletUpdated",
      "type": "event"
    },
    {
      "anonymous": false,
      "inputs": [
        {
          "indexed": false,
          "internalType": "uint256",
          "name": "amount",
          "type": "uint256"
        },
        {
          "indexed": false,
          "internalType": "string",
          "name": "purpose",
          "type": "string"
        }
      ],
      "name": "ReserveWithdrawn",
      "type": "event"
    },
    {
      "anonymous": false,
      "inputs": [
        {
          "indexed": true,
          "internalType": "bytes32",
          "name": "role",
          "type": "bytes32"
        },
        {
          "indexed": true,
          "internalType": "bytes32",
          "name": "previousAdminRole",
          "type": "bytes32"
        },
        {
          "indexed": true,
          "internalType": "bytes32",
          "name": "newAdminRole",
          "type": "bytes32"
        }
      ],
      "name": "RoleAdminChanged",
      "type": "event"
    },
    {
      "anonymous": false,
      "inputs": [
        {
          "indexed": true,
          "internalType": "bytes32",
          "name": "role",
          "type": "bytes32"
        },
        {
          "indexed": true,
          "internalType": "address",
          "name": "account",
          "type": "address"
        },
        {
          "indexed": true,
          "internalType": "address",
          "name": "sender",
          "type": "address"
        }
      ],
      "name": "RoleGranted",
      "type": "event"
    },
    {
      "anonymous": false,
      "inputs": [
        {
          "indexed": true,
          "internalType": "bytes32",
          "name": "role",
          "type": "bytes32"
        },
        {
          "indexed": true,
          "internalType": "address",
          "name": "account",
          "type": "address"
        },
        {
          "indexed": true,
          "internalType": "address",
          "name": "sender",
          "type": "address"
        }
      ],
      "name": "RoleRevoked",
      "type": "event"
    },
    {
      "anonymous": false,
      "inputs": [
        {
          "indexed": true,
          "internalType": "uint256",
          "name": "raffleId",
          "type": "uint256"
        },
        {
          "indexed": false,
          "internalType": "address[]",
          "name": "runnerUps",
          "type": "address[]"
        }
      ],
      "name": "RunnerUpsSelected",
      "type": "event"
    },
    {
      "anonymous": false,
      "inputs": [
        {
          "indexed": true,
          "internalType": "address",
          "name": "recipient",
          "type": "address"
        },
        {
          "indexed": false,
          "internalType": "uint256",
          "name": "amount",
          "type": "uint256"
        }
      ],
      "name": "ScholarshipAwarded",
      "type": "event"
    },
    {
      "anonymous": false,
      "inputs": [
        {
          "indexed": false,
          "internalType": "address",
          "name": "account",
          "type": "address"
        }
      ],
      "name": "Unpaused",
      "type": "event"
    },
    {
      "inputs": [],
      "name": "ADMIN_ROLE",
      "outputs": [
        {
          "internalType": "bytes32",
          "name": "",
          "type": "bytes32"
        }
      ],
      "stateMutability": "view",
      "type": "function"
    },
    {
      "inputs": [],
      "name": "DEFAULT_ADMIN_ROLE",
      "outputs": [
        {
          "internalType": "bytes32",
          "name": "",
          "type": "bytes32"
        }
      ],
      "stateMutability": "view",
      "type": "function"
    },
    {
      "inputs": [],
      "name": "SCHOLARSHIP_MANAGER_ROLE",
      "outputs": [
        {
          "internalType": "bytes32",
          "name": "",
          "type": "bytes32"
        }
      ],
      "stateMutability": "view",
      "type": "function"
    },
    {
      "inputs": [
        {
          "internalType": "address",
          "name": "recipient",
          "type": "address"
        },
        {
          "internalType": "uint256",
          "name": "amount",
          "type": "uint256"
        }
      ],
      "name": "awardScholarship",
      "outputs": [],
      "stateMutability": "nonpayable",
      "type": "function"
    },
    {
      "inputs": [],
      "name": "claimPrize",
      "outputs": [],
      "stateMutability": "nonpayable",
      "type": "function"
    },
    {
      "inputs": [],
      "name": "currentRaffleId",
      "outputs": [
        {
          "internalType": "uint256",
          "name": "",
          "type": "uint256"
        }
      ],
      "stateMutability": "view",
      "type": "function"
    },
    {
      "inputs": [
        {
          "internalType": "uint256",
          "name": "amount",
          "type": "uint256"
        }
      ],
      "name": "depositToReserve",
      "outputs": [],
      "stateMutability": "nonpayable",
      "type": "function"
    },
    {
      "inputs": [
        {
          "internalType": "uint256",
          "name": "amount",
          "type": "uint256"
        }
      ],
      "name": "donate",
      "outputs": [],
      "stateMutability": "nonpayable",
      "type": "function"
    },
    {
      "inputs": [
        {
          "internalType": "uint256",
          "name": "",
          "type": "uint256"
        }
      ],
      "name": "donationTierEntries",
      "outputs": [
        {
          "internalType": "uint256",
          "name": "",
          "type": "uint256"
        }
      ],
      "stateMutability": "view",
      "type": "function"
    },
    {
      "inputs": [
        {
          "internalType": "uint256",
          "name": "",
          "type": "uint256"
        }
      ],
      "name": "donorAddresses",
      "outputs": [
        {
          "internalType": "address",
          "name": "",
          "type": "address"
        }
      ],
      "stateMutability": "view",
      "type": "function"
    },
    {
      "inputs": [
        {
          "internalType": "address",
          "name": "",
          "type": "address"
        }
      ],
      "name": "donors",
      "outputs": [
        {
          "internalType": "uint256",
          "name": "totalDonated",
          "type": "uint256"
        },
        {
          "internalType": "uint256",
          "name": "entries",
          "type": "uint256"
        }
      ],
      "stateMutability": "view",
      "type": "function"
    },
    {
      "inputs": [
        {
          "internalType": "uint256",
          "name": "raffleId",
          "type": "uint256"
        }
      ],
      "name": "getRaffleRunnerUps",
      "outputs": [
        {
          "internalType": "address[]",
          "name": "",
          "type": "address[]"
        }
      ],
      "stateMutability": "view",
      "type": "function"
    },
    {
      "inputs": [
        {
          "internalType": "uint256",
          "name": "raffleId",
          "type": "uint256"
        }
      ],
      "name": "getRaffleWinners",
      "outputs": [
        {
          "internalType": "address[]",
          "name": "",
          "type": "address[]"
        }
      ],
      "stateMutability": "view",
      "type": "function"
    },
    {
      "inputs": [
        {
          "internalType": "bytes32",
          "name": "role",
          "type": "bytes32"
        }
      ],
      "name": "getRoleAdmin",
      "outputs": [
        {
          "internalType": "bytes32",
          "name": "",
          "type": "bytes32"
        }
      ],
      "stateMutability": "view",
      "type": "function"
    },
    {
      "inputs": [],
      "name": "getScholarshipBalance",
      "outputs": [
        {
          "internalType": "uint256",
          "name": "",
          "type": "uint256"
        }
      ],
      "stateMutability": "view",
      "type": "function"
    },
    {
      "inputs": [
        {
          "internalType": "bytes32",
          "name": "role",
          "type": "bytes32"
        },
        {
          "internalType": "address",
          "name": "account",
          "type": "address"
        }
      ],
      "name": "grantRole",
      "outputs": [],
      "stateMutability": "nonpayable",
      "type": "function"
    },
    {
      "inputs": [
        {
          "internalType": "bytes32",
          "name": "role",
          "type": "bytes32"
        },
        {
          "internalType": "address",
          "name": "account",
          "type": "address"
        }
      ],
      "name": "hasRole",
      "outputs": [
        {
          "internalType": "bool",
          "name": "",
          "type": "bool"
        }
      ],
      "stateMutability": "view",
      "type": "function"
    },
    {
      "inputs": [],
      "name": "pause",
      "outputs": [],
      "stateMutability": "nonpayable",
      "type": "function"
    },
    {
      "inputs": [],
      "name": "paused",
      "outputs": [
        {
          "internalType": "bool",
          "name": "",
          "type": "bool"
        }
      ],
      "stateMutability": "view",
      "type": "function"
    },
    {
      "inputs": [
        {
          "internalType": "uint256",
          "name": "",
          "type": "uint256"
        },
        {
          "internalType": "uint256",
          "name": "",
          "type": "uint256"
        }
      ],
      "name": "raffleEntryOwners",
      "outputs": [
        {
          "internalType": "address",
          "name": "",
          "type": "address"
        }
      ],
      "stateMutability": "view",
      "type": "function"
    },
    {
      "inputs": [
        {
          "internalType": "uint256",
          "name": "",
          "type": "uint256"
        },
        {
          "internalType": "address",
          "name": "",
          "type": "address"
        }
      ],
      "name": "rafflePrizes",
      "outputs": [
        {
          "internalType": "uint256",
          "name": "",
          "type": "uint256"
        }
      ],
      "stateMutability": "view",
      "type": "function"
    },
    {
      "inputs": [
        {
          "internalType": "uint256",
          "name": "",
          "type": "uint256"
        }
      ],
      "name": "raffleTotalEntries",
      "outputs": [
        {
          "internalType": "uint256",
          "name": "",
          "type": "uint256"
        }
      ],
      "stateMutability": "view",
      "type": "function"
    },
    {
      "inputs": [
        {
          "internalType": "uint256",
          "name": "",
          "type": "uint256"
        }
      ],
      "name": "raffles",
      "outputs": [
        {
          "internalType": "uint256",
          "name": "startTime",
          "type": "uint256"
        },
        {
          "internalType": "uint256",
          "name": "endTime",
          "type": "uint256"
        },
        {
          "internalType": "uint256",
          "name": "prizePool",
          "type": "uint256"
        },
        {
          "internalType": "uint256",
          "name": "donations",
          "type": "uint256"
        },
        {
          "internalType": "bool",
          "name": "completed",
          "type": "bool"
        },
        {
          "internalType": "uint256",
          "name": "requestId",
          "type": "uint256"
        }
      ],
      "stateMutability": "view",
      "type": "function"
    },
    {
      "inputs": [
        {
          "internalType": "bytes32",
          "name": "role",
          "type": "bytes32"
        },
        {
          "internalType": "address",
          "name": "callerConfirmation",
          "type": "address"
        }
      ],
      "name": "renounceRole",
      "outputs": [],
      "stateMutability": "nonpayable",
      "type": "function"
    },
    {
      "inputs": [],
      "name": "reserveBalance",
      "outputs": [
        {
          "internalType": "uint256",
          "name": "",
          "type": "uint256"
        }
      ],
      "stateMutability": "view",
      "type": "function"
    },
    {
      "inputs": [],
      "name": "reserveWallet",
      "outputs": [
        {
          "internalType": "address",
          "name": "",
          "type": "address"
        }
      ],
      "stateMutability": "view",
      "type": "function"
    },
    {
      "inputs": [
        {
          "internalType": "bytes32",
          "name": "role",
          "type": "bytes32"
        },
        {
          "internalType": "address",
          "name": "account",
          "type": "address"
        }
      ],
      "name": "revokeRole",
      "outputs": [],
      "stateMutability": "nonpayable",
      "type": "function"
    },
    {
      "inputs": [],
      "name": "selectWinners",
      "outputs": [],
      "stateMutability": "nonpayable",
      "type": "function"
    },
    {
      "inputs": [
        {
          "internalType": "address",
          "name": "_newWallet",
          "type": "address"
        }
      ],
      "name": "setReserveWallet",
      "outputs": [],
      "stateMutability": "nonpayable",
      "type": "function"
    },
    {
      "inputs": [
        {
          "internalType": "bytes4",
          "name": "interfaceId",
          "type": "bytes4"
        }
      ],
      "name": "supportsInterface",
      "outputs": [
        {
          "internalType": "bool",
          "name": "",
          "type": "bool"
        }
      ],
      "stateMutability": "view",
      "type": "function"
    },
    {
      "inputs": [],
      "name": "totalDonations",
      "outputs": [
        {
          "internalType": "uint256",
          "name": "",
          "type": "uint256"
        }
      ],
      "stateMutability": "view",
      "type": "function"
    },
    {
      "inputs": [
        {
          "internalType": "address",
          "name": "",
          "type": "address"
        }
      ],
      "name": "unclaimedPrizes",
      "outputs": [
        {
          "internalType": "uint256",
          "name": "",
          "type": "uint256"
        }
      ],
      "stateMutability": "view",
      "type": "function"
    },
    {
      "inputs": [],
      "name": "unpause",
      "outputs": [],
      "stateMutability": "nonpayable",
      "type": "function"
    },
    {
      "inputs": [],
      "name": "usdt",
      "outputs": [
        {
          "internalType": "contract IERC20",
          "name": "",
          "type": "address"
        }
      ],
      "stateMutability": "view",
      "type": "function"
    }
  ],
  "bytecode": "0x60a06040523480156200001157600080fd5b506040516200293638038062002936833981016040819052620000349162000417565b60016000556002805460ff191690556001600160a01b0382166200009f5760405162461bcd60e51b815260206004820152601460248201527f496e76616c69642055534454206164647265737300000000000000000000000060448201526064015b60405180910390fd5b6001600160a01b038116620000f75760405162461bcd60e51b815260206004820152601e60248201527f496e76616c696420726573657276652077616c6c657420616464726573730000604482015260640162000096565b6001600160a01b03828116608052600980546001600160a01b0319169183169190911790556000600f8190556200012f903362000238565b506200015c7fa49807205ce4d355092ef5a8a18f56e8913cf4a201fbe287825b095693c217753362000238565b50620001897f10611feacf75d15e8cdab75bab566e5fa2cfa0efaea1e2ce4eddab65ac96f5a23362000238565b506001600360006200019e6006600a62000562565b620001ab90600a62000577565b8152602001908152602001600020819055506006600360006006600a620001d3919062000562565b620001e090603262000577565b815260200190815260200160002081905550600f600360006006600a62000208919062000562565b6200021590606462000577565b815260208101919091526040016000205562000230620002cf565b5050620005c3565b60008281526001602090815260408083206001600160a01b038516845290915281205460ff16620002c55760008381526001602081815260408084206001600160a01b0387168086529252808420805460ff19169093179092559051339286917f2f8788117e7eff1d82e926ec794901d17c78024a50270940304540a733656f0d9190a4506001620002c9565b5060005b92915050565b60068054906000620002e18362000591565b90915550506006546000908152600560205260409020428082556200030a9062093a80620005ad565b60018201556000600282018190556003820181905560058201805460ff191690556006820181905560408051918252602082019081905290516200035391600484019162000379565b5060408051600081526020810191829052516200037591600784019162000379565b5050565b828054828255906000526020600020908101928215620003d1579160200282015b82811115620003d157825182546001600160a01b0319166001600160a01b039091161782556020909201916001909101906200039a565b50620003df929150620003e3565b5090565b5b80821115620003df5760008155600101620003e4565b80516001600160a01b03811681146200041257600080fd5b919050565b600080604083850312156200042b57600080fd5b6200043683620003fa565b91506200044660208401620003fa565b90509250929050565b634e487b7160e01b600052601160045260246000fd5b600181815b80851115620004a65781600019048211156200048a576200048a6200044f565b808516156200049857918102915b93841c93908002906200046a565b509250929050565b600082620004bf57506001620002c9565b81620004ce57506000620002c9565b8160018114620004e75760028114620004f25762000512565b6001915050620002c9565b60ff8411156200050657620005066200044f565b50506001821b620002c9565b5060208310610133831016604e8410600b841016171562000537575081810a620002c9565b62000543838362000465565b80600019048211156200055a576200055a6200044f565b029392505050565b6000620005708383620004ae565b9392505050565b8082028115828204841417620002c957620002c96200044f565b600060018201620005a657620005a66200044f565b5060010190565b80820180821115620002c957620002c96200044f565b60805161233b620005fb600039600081816102b201528181610ed10152818161116f0152818161152e0152611883015261233b6000f3fe608060405234801561001057600080fd5b50600436106102065760003560e01c80638456cb591161011a578063b17d718e116100ad578063dda4fa8f1161007c578063dda4fa8f1461053a578063de2ed8931461054d578063efd4952f14610556578063f14faf6f14610569578063f57eea881461057c57600080fd5b8063b17d718e146104c5578063ca0cdea8146104d8578063d547741f14610514578063d72b11bd1461052757600080fd5b80639a4e6630116100e95780639a4e66301461048c5780639bde011014610494578063a10954fe146104b4578063a217fddf146104bd57600080fd5b80638456cb591461041d5780638e235d061461042557806391d1485414610445578063948837b61461045857600080fd5b80633f4ba83a1161019d5780635d4bc0ce1161016c5780635d4bc0ce1461036c57806365df169e146103e457806370740ac9146103ed57806375b238fc146103f55780637b618f291461040a57600080fd5b80633f4ba83a1461030e5780634823b026146103165780634a9876d1146103365780635c975abb1461036157600080fd5b80632f2ff15d116101d95780632f2ff15d1461029a5780632f48ab7d146102ad57806336568abe146102d45780633b71498a146102e757600080fd5b806301ffc9a71461020b5780631a0de74c14610233578063248a9ca31461023d5780632b2aee5d1461026f575b600080fd5b61021e610219366004611f73565b61059c565b60405190151581526020015b60405180910390f35b61023b6105d3565b005b61026161024b366004611f9d565b6000908152600160208190526040909120015490565b60405190815260200161022a565b61028261027d366004611f9d565b610d17565b6040516001600160a01b03909116815260200161022a565b61023b6102a8366004611fd2565b610d41565b6102827f000000000000000000000000000000000000000000000000000000000000000081565b61023b6102e2366004611fd2565b610d6d565b6102617f10611feacf75d15e8cdab75bab566e5fa2cfa0efaea1e2ce4eddab65ac96f5a281565b61023b610da5565b610329610324366004611f9d565b610dd0565b60405161022a9190612042565b610261610344366004611fd2565b600e60209081526000928352604080842090915290825290205481565b60025460ff1661021e565b6103b561037a366004611f9d565b600560208190526000918252604090912080546001820154600283015460038401549484015460069094015492949193909260ff9091169086565b6040805196875260208701959095529385019290925260608401521515608083015260a082015260c00161022a565b61026160065481565b61023b610e3f565b6102616000805160206122e683398151915281565b610329610418366004611f9d565b610fd3565b61023b611040565b610261610433366004612055565b600d6020526000908152604090205481565b61021e610453366004611fd2565b611068565b610282610466366004612070565b600b6020908152600092835260408084209091529082529020546001600160a01b031681565b610261611093565b6102616104a2366004611f9d565b60036020526000908152604090205481565b610261600a5481565b610261600081565b61023b6104d3366004611f9d565b6110c6565b6104ff6104e6366004612055565b6004602052600090815260409020805460019091015482565b6040805192835260208301919091520161022a565b61023b610522366004611fd2565b611267565b600954610282906001600160a01b031681565b61023b610548366004612055565b61128d565b61026160075481565b61023b610564366004612092565b611347565b61023b610577366004611f9d565b611635565b61026161058a366004611f9d565b600c6020526000908152604090205481565b60006001600160e01b03198216637965db0b60e01b14806105cd57506301ffc9a760e01b6001600160e01b03198316145b92915050565b6000805160206122e68339815191526105eb81611982565b60065460009081526005602081905260409091209081015460ff16156106585760405162461bcd60e51b815260206004820152601860248201527f526166666c6520616c726561647920636f6d706c65746564000000000000000060448201526064015b60405180910390fd5b6006546000908152600c60205260409020546106ad5760405162461bcd60e51b81526020600482015260146024820152734e6f20656e747269657320696e20726166666c6560601b604482015260640161064f565b60006064602383600301546106c291906120d2565b6106cc91906120ff565b90506106da6006600a6121f7565b6106e6906113886120d2565b811015610800576000816106fc6006600a6121f7565b610708906113886120d2565b6107129190612203565b905080600a5410156107665760405162461bcd60e51b815260206004820152601c60248201527f496e73756666696369656e7420726573657276652062616c616e636500000000604482015260640161064f565b80600a60008282546107789190612203565b9091555061078a90506006600a6121f7565b610796906113886120d2565b91507f75b7d931a64424d908cd373af0ab487fe7ce7c398a770858777e6f8cf733c120816040516107f691815260406020820181905260159082015274141c9a5e99481c1bdbdb081cdd5c1c1b195b595b9d605a1b606082015260800190565b60405180910390a1505b61080c6006600a6121f7565b610818906113886120d2565b81101561085c5760405162461bcd60e51b81526020600482015260126024820152715072697a6520706f6f6c20746f6f206c6f7760701b604482015260640161064f565b6002820181905560408051600580825260c082019092526000916020820160a080368337505060408051600580825260c0820190925292935060009291506020820160a08036833701905050905060006108c46006546000908152600c602052604090205490565b905060005b60058110156109485760006108dd8361198c565b905061090b816006546000908152600b6020908152604080832093835292905220546001600160a01b031690565b85838151811061091d5761091d612216565b6001600160a01b039092166020928302919091019091015250806109408161222c565b9150506108c9565b5060005b60058110156109cb5760006109608361198c565b905061098e816006546000908152600b6020908152604080832093835292905220546001600160a01b031690565b8483815181106109a0576109a0612216565b6001600160a01b039092166020928302919091019091015250806109c38161222c565b91505061094c565b5060408051600580825260c082019092526000916020820160a0803683370190505090508460005b6005811015610ad4576000610a0782611a07565b9050610a138882611aa1565b848381518110610a2557610a25612216565b6020026020010181815250506006547fc99fb8e3ecb0029e6a0777fe48c19efd70b0b05f423781cdab10f8be5a6150618983878681518110610a6957610a69612216565b6020026020010151604051610a91939291909283526020830191909152604082015260600190565b60405180910390a2838281518110610aab57610aab612216565b602002602001015183610abe9190612203565b9250508080610acc9061222c565b9150506109f3565b508015610b235760405162461bcd60e51b815260206004820152601860248201527f5072697a6520646973747269627574696f6e206572726f720000000000000000604482015260640161064f565b60005b6005811015610c525760006001600160a01b0316868281518110610b4c57610b4c612216565b60200260200101516001600160a01b031614610c4057828181518110610b7457610b74612216565b6020026020010151600d6000888481518110610b9257610b92612216565b60200260200101516001600160a01b03166001600160a01b031681526020019081526020016000206000828254610bc99190612245565b92505081905550828181518110610be257610be2612216565b6020026020010151600e600060065481526020019081526020016000206000888481518110610c1357610c13612216565b60200260200101516001600160a01b03166001600160a01b03168152602001908152602001600020819055505b80610c4a8161222c565b915050610b26565b508451610c689060048901906020880190611ef9565b508351610c7e9060078901906020870190611ef9565b5060058701805460ff191660011790556006546040517f533c6ab335ffdafc29f64caacc3a5d6125912b54d4f6acf063f686e68468d7c990610cc39088908690612258565b60405180910390a26006547fd43d0dca1f50044b0071968515d4ad70794edfa73eba9f74113c6e303a89942385604051610cfd9190612042565b60405180910390a2610d0d611ac0565b5050505050505050565b60088181548110610d2757600080fd5b6000918252602090912001546001600160a01b0316905081565b60008281526001602081905260409091200154610d5d81611982565b610d678383611b62565b50505050565b6001600160a01b0381163314610d965760405163334bd91960e11b815260040160405180910390fd5b610da08282611bdb565b505050565b6000805160206122e6833981519152610dbd81611982565b610dc5611c48565b610dcd611c6b565b50565b600081815260056020908152604091829020600401805483518184028101840190945280845260609392830182828015610e3357602002820191906000526020600020905b81546001600160a01b03168152600190910190602001808311610e15575b50505050509050919050565b610e47611cbd565b336000908152600d602052604090205480610e995760405162461bcd60e51b81526020600482015260126024820152714e6f207072697a657320746f20636c61696d60701b604482015260640161064f565b336000818152600d6020526040808220919091555163a9059cbb60e01b81526004810191909152602481018290526001600160a01b037f0000000000000000000000000000000000000000000000000000000000000000169063a9059cbb906044016020604051808303816000875af1158015610f1a573d6000803e3d6000fd5b505050506040513d601f19601f82011682018060405250810190610f3e91906122af565b610f825760405162461bcd60e51b8152602060048201526015602482015274141c9a5e99481d1c985b9cd9995c8819985a5b1959605a1b604482015260640161064f565b6006543390610f9390600190612203565b6040518381527f63cb823256ca20f7bfe46facd0454f008e7e2a095e8fe6f0d154d226de806b849060200160405180910390a350610fd16001600055565b565b600081815260056020908152604091829020600701805483518184028101840190945280845260609392830182828015610e33576020028201919060005260206000209081546001600160a01b03168152600190910190602001808311610e155750505050509050919050565b6000805160206122e683398151915261105881611982565b611060611ce7565b610dcd611d0b565b60009182526001602090815260408084206001600160a01b0393909316845291905290205460ff1690565b6006546000908152600560205260408120600301546064906110b790602d906120d2565b6110c191906120ff565b905090565b6110ce611cbd565b6000805160206122e68339815191526110e681611982565b600082116111365760405162461bcd60e51b815260206004820152601d60248201527f416d6f756e74206d7573742062652067726561746572207468616e2030000000604482015260640161064f565b81600a60008282546111489190612245565b90915550506040516323b872dd60e01b8152336004820152306024820152604481018390527f00000000000000000000000000000000000000000000000000000000000000006001600160a01b0316906323b872dd906064016020604051808303816000875af11580156111c0573d6000803e3d6000fd5b505050506040513d601f19601f820116820180604052508101906111e491906122af565b6112275760405162461bcd60e51b81526020600482015260146024820152731554d115081d1c985b9cd9995c8819985a5b195960621b604482015260640161064f565b60405182815233907fcea2aa568570e239e616fd2e9bcf2301307aa1c1c1f355305a87e5cdd46bbc799060200160405180910390a250610dcd6001600055565b6000828152600160208190526040909120015461128381611982565b610d678383611bdb565b6000805160206122e68339815191526112a581611982565b6001600160a01b0382166112f45760405162461bcd60e51b8152602060048201526016602482015275496e76616c69642077616c6c6574206164647265737360501b604482015260640161064f565b600980546001600160a01b038481166001600160a01b0319831681179093556040519116919082907fab4955c2cf65d867be4283a83bbbda3eed4fcb13202c1a1cb7e35accb3370df590600090a3505050565b7f10611feacf75d15e8cdab75bab566e5fa2cfa0efaea1e2ce4eddab65ac96f5a261137181611982565b611379611cbd565b6000611383611093565b90506113916006600a6121f7565b61139d906107d06120d2565b8110156114b8576000816113b36006600a6121f7565b6113bf906107d06120d2565b6113c99190612203565b905080600a54101561141d5760405162461bcd60e51b815260206004820152601c60248201527f496e73756666696369656e7420726573657276652062616c616e636500000000604482015260640161064f565b80600a600082825461142f9190612203565b9091555061144190506006600a6121f7565b61144d906107d06120d2565b91507f75b7d931a64424d908cd373af0ab487fe7ce7c398a770858777e6f8cf733c120816040516114ae9181526040602082018190526016908201527514d8da1bdb185c9cda1a5c081cdd5c1c1b195b595b9d60521b606082015260800190565b60405180910390a1505b808311156115085760405162461bcd60e51b815260206004820152601e60248201527f496e73756666696369656e74207363686f6c6172736869702066756e64730000604482015260640161064f565b60405163a9059cbb60e01b81526001600160a01b038581166004830152602482018590527f0000000000000000000000000000000000000000000000000000000000000000169063a9059cbb906044016020604051808303816000875af1158015611577573d6000803e3d6000fd5b505050506040513d601f19601f8201168201806040525081019061159b91906122af565b6115e75760405162461bcd60e51b815260206004820152601b60248201527f5363686f6c617273686970207472616e73666572206661696c65640000000000604482015260640161064f565b836001600160a01b03167f9698d62609dc8cc63e1bbe6fd980ab7bffd442db052ae70a77a6a3f0bb653af68460405161162291815260200190565b60405180910390a250610da06001600055565b61163d611cbd565b611645611ce7565b6116516006600a6121f7565b61165c90600a6120d2565b8110156116a45760405162461bcd60e51b8152602060048201526016602482015275446f6e6174696f6e2062656c6f77206d696e696d756d60501b604482015260640161064f565b60006116af82611d48565b6006546000908152600c6020908152604080832054338452600490925282205492935091900361171c57600880546001810182556000919091527ff3f7a9fe364faab93b216da50a3214154f22a0a2b415b23a84c8169e8b636ee30180546001600160a01b031916331790555b60005b82811015611784576006546000908152600b6020526040812033916117448486612245565b8152602081019190915260400160002080546001600160a01b0319166001600160a01b03929092169190911790558061177c8161222c565b91505061171f565b506006546000908152600c6020526040812080548492906117a6908490612245565b909155505033600090815260046020526040812080548592906117ca908490612245565b909155505033600090815260046020526040812060010180548492906117f1908490612245565b90915550503360009081526004602090815260408220600654600290910180546001810182559084529183209091015560078054859290611833908490612245565b90915550506006546000908152600560205260408120600301805485929061185c908490612245565b90915550506040516323b872dd60e01b8152336004820152306024820152604481018490527f00000000000000000000000000000000000000000000000000000000000000006001600160a01b0316906323b872dd906064016020604051808303816000875af11580156118d4573d6000803e3d6000fd5b505050506040513d601f19601f820116820180604052508101906118f891906122af565b61193b5760405162461bcd60e51b81526020600482015260146024820152731554d115081d1c985b9cd9995c8819985a5b195960621b604482015260640161064f565b604080518481526020810184905233917f4b0304ab2f313234b1cea012339c8f8c3bf2c8bb357d81a579cfdb35d2e3d030910160405180910390a25050610dcd6001600055565b610dcd8133611ec0565b600f80546000918261199d8361222c565b919050555081424433600f546040516020016119e49493929190938452602084019290925260601b6bffffffffffffffffffffffff19166040830152605482015260740190565b6040516020818303038152906040528051906020012060001c6105cd91906122d1565b600060058210611a495760405162461bcd60e51b815260206004820152600d60248201526c496e76616c696420706c61636560981b604482015260640161064f565b81600003611a595750602d919050565b81600103611a6957506019919050565b81600203611a795750600f919050565b81600303611a895750600a919050565b81600403611a9957506005919050565b506000919050565b60006064611aaf83856120d2565b611ab991906120ff565b9392505050565b60068054906000611ad08361222c565b9091555050600654600090815260056020526040902042808255611af79062093a80612245565b60018201556000600282018190556003820181905560058201805460ff19169055600682018190556040805191825260208201908190529051611b3e916004840191611ef9565b506040805160008152602081019182905251611b5e916007840191611ef9565b5050565b6000611b6e8383611068565b611bd35760008381526001602081815260408084206001600160a01b0387168086529252808420805460ff19169093179092559051339286917f2f8788117e7eff1d82e926ec794901d17c78024a50270940304540a733656f0d9190a45060016105cd565b5060006105cd565b6000611be78383611068565b15611bd35760008381526001602090815260408083206001600160a01b0386168085529252808320805460ff1916905551339286917ff6391f5c32d9c69d2a47ea670b442974b53935d1edc7fd64eb21e047a839171b9190a45060016105cd565b60025460ff16610fd157604051638dfc202b60e01b815260040160405180910390fd5b611c73611c48565b6002805460ff191690557f5db9ee0a495bf2e6ff9c91a7834c1ba4fdd244a5e8aa4e537bd38aeae4b073aa335b6040516001600160a01b03909116815260200160405180910390a1565b600260005403611ce057604051633ee5aeb560e01b815260040160405180910390fd5b6002600055565b60025460ff1615610fd15760405163d93c066560e01b815260040160405180910390fd5b611d13611ce7565b6002805460ff191660011790557f62e78cea01bee320cd4e420270b5ea74000d11b0c9f74754ebdbfc544b05a258611ca03390565b6000805b611d586006600a6121f7565b611d639060646120d2565b8310611dc85760036000611d796006600a6121f7565b611d849060646120d2565b81526020019081526020016000205481611d9e9190612245565b9050611dac6006600a6121f7565b611db79060646120d2565b611dc19084612203565b9250611d4c565b611dd46006600a6121f7565b611ddf9060326120d2565b8310611e445760036000611df56006600a6121f7565b611e009060326120d2565b81526020019081526020016000205481611e1a9190612245565b9050611e286006600a6121f7565b611e339060326120d2565b611e3d9084612203565b9250611dc8565b611e506006600a6121f7565b611e5b90600a6120d2565b83106105cd5760036000611e716006600a6121f7565b611e7c90600a6120d2565b81526020019081526020016000205481611e969190612245565b9050611ea46006600a6121f7565b611eaf90600a6120d2565b611eb99084612203565b9250611e44565b611eca8282611068565b611b5e5760405163e2517d3f60e01b81526001600160a01b03821660048201526024810183905260440161064f565b828054828255906000526020600020908101928215611f4e579160200282015b82811115611f4e57825182546001600160a01b0319166001600160a01b03909116178255602090920191600190910190611f19565b50611f5a929150611f5e565b5090565b5b80821115611f5a5760008155600101611f5f565b600060208284031215611f8557600080fd5b81356001600160e01b031981168114611ab957600080fd5b600060208284031215611faf57600080fd5b5035919050565b80356001600160a01b0381168114611fcd57600080fd5b919050565b60008060408385031215611fe557600080fd5b82359150611ff560208401611fb6565b90509250929050565b600081518084526020808501945080840160005b838110156120375781516001600160a01b031687529582019590820190600101612012565b509495945050505050565b602081526000611ab96020830184611ffe565b60006020828403121561206757600080fd5b611ab982611fb6565b6000806040838503121561208357600080fd5b50508035926020909101359150565b600080604083850312156120a557600080fd5b6120ae83611fb6565b946020939093013593505050565b634e487b7160e01b600052601160045260246000fd5b80820281158282048414176105cd576105cd6120bc565b634e487b7160e01b600052601260045260246000fd5b60008261210e5761210e6120e9565b500490565b600181815b8085111561214e578160001904821115612134576121346120bc565b8085161561214157918102915b93841c9390800290612118565b509250929050565b600082612165575060016105cd565b81612172575060006105cd565b81600181146121885760028114612192576121ae565b60019150506105cd565b60ff8411156121a3576121a36120bc565b50506001821b6105cd565b5060208310610133831016604e8410600b84101617156121d1575081810a6105cd565b6121db8383612113565b80600019048211156121ef576121ef6120bc565b029392505050565b6000611ab98383612156565b818103818111156105cd576105cd6120bc565b634e487b7160e01b600052603260045260246000fd5b60006001820161223e5761223e6120bc565b5060010190565b808201808211156105cd576105cd6120bc565b60408152600061226b6040830185611ffe565b82810360208481019190915284518083528582019282019060005b818110156122a257845183529383019391830191600101612286565b5090979650505050505050565b6000602082840312156122c157600080fd5b81518015158114611ab957600080fd5b6000826122e0576122e06120e9565b50069056fea49807205ce4d355092ef5a8a18f56e8913cf4a201fbe287825b095693c21775a2646970667358221220c2e0981734e9235d61132a39436b98d52a1c0f683d27e635dd3b2681668f232864736f6c63430008140033",
  "linkReferences": {},
  "deployedLinkReferences": {}
}